:1000000000308A006E280000201020088316870028
:1000100083120710A010200883168700831287140C
:10002000201120088316870083120711A0112008D1
:1000300083168700831287158A110A1294282010CC
:1000400020088316870083120710A010200883164B
:1000500087008312871420112008831687008312DB
:100060000711A011200883168700831287118A11B7
:100070000A129B282010200883168700831207107D
:10008000A0102008831687008312871020112008F3
:100090008316870083120711A0112008831687009A
:1000A000831287158A110A12A228201020088316AD
:1000B000870083120710A010200883168700831280
:1000C0008710201120088316870083120711A011C2
:1000D00020088316870083128711080003081F3940
:1000E0008300FF30A00083161F149F141F159F115B
:1000F00007309C008313003087008312A000FF307C
:100100008316880008148312A1010818A10A831617
:1001100088148312A2018818A20AA108031D952839
:10012000A208031D95280428AA28A108031D9C28BD
:10013000220B9C281F28AA28210BA328A208031DF4
:10014000A3283A28AA28210BA928220BA928552040
:0A015000AA285520831682286300B8
:02400E00723FFF
:00000001FF
;PIC16F877A
;CRC=3535  CREATED="11-Nov-24 21:36"
